:100000000C9446000C9458000C9458000C94580022
:100010000C9458000C9458000C9458000C94580000
:100020000C9458000C9458000C9458000C945800F0
:100030000C9458000C9458000C9458000C945800E0
:100040000C9458000C94A7020C9458000C9458007F
:100050000C9458000C9458000C9458000C945800C0
:100060000C9458000C9458000C9458000C945800B0
:100070000C9458000C9458000C9458000C945800A0
:100080000C9458000C9458000C94580011241FBE76
:10009000CFEFD0E1DEBFCDBF21E0A0E0B1E001C0F5
:1000A0001D92A232B207E1F70E9478030C94F80582
:1000B0000C94000083B7896683BF08958FB5816A69
:1000C0008FBD8EB589608EBD089585B5896685BD65
:1000D0000895BB9A80EC8DB908951B9A1C9A1D9ABD
:1000E0001E9A0895CF92DF92EF92FF92CF93DF9303
:1000F00069017A012AE939E949EC50E40E942C04AB
:1001000020E030E04FE753E40E948B050E949E04FC
:10011000EB012AE939E949EC50E4C701B6010E9434
:100120002C0420E030E04FE753E40E948B050E944E
:100130009E048091000190910101892B21F011BE54
:100140007BBD6ABD03C061BF1BBC1ABC80910201AC
:1001500090910301892B21F013BCD9BDC8BD03C008
:10016000C3BD19BC18BCDF91CF91FF90EF90DF9019
:10017000CF9008954F925F926F927F928F929F924D
:10018000AF92BF92CF92DF92EF92FF924B015C0150
:1001900029013A0120E030E0A9010E9427048823C8
:1001A00089F02FE93CE34CE25DE3C301B2010E9418
:1001B0008B052CEC3EEE49E15FE30E94BB036B0133
:1001C0007C0103C0C12CD12C760120E030E0A901D4
:1001D000C301B2010E942704882389F02CE032E099
:1001E0004BE25DE3C501B4010E948B0523E93AE3CC
:1001F00049E15FE30E94BB039B01AC0103C020E027
:1002000030E0A901C701B601FF90EF90DF90CF90D9
:10021000BF90AF909F908F907F906F905F904F9026
:100220000C9472004F925F926F927F928F929F9286
:10023000AF92BF92CF92DF92EF92FF924B015C019F
:1002400069017A0120E030E0A9010E9427048111B0
:100250000AC020E030E0A901C701B6010E942704CE
:10026000882309F417C120E030E04CED52E4C501C9
:10027000B4010E94860518160CF492C020E030E00C
:100280004CED52ECC501B4010E94270422E93AE08A
:1002900046E85FE387FD5EC0C701B6010E948605A0
:1002A00018169CF022E93AE046E85FEBC701B60178
:1002B0000E94270487FF18C022E9C22E2AE0D22E0E
:1002C00026E8E22E2FEBF22E0FC032E9C32E3AE0E1
:1002D000D32E36E8E32E3FE3F32E06C0812C912C7B
:1002E0009CEDA92E92ECB92E2DE33AE047ED5EE3AA
:1002F000C701B6010E948B0520E030E040E05FE3DB
:100300000E948B052B013C019B01AC01C501B4018E
:100310000E94BB032AEA37E24FE153E40E948B05B7
:100320006B017C01A3019201C501B4010E94BA03D3
:100330002AEA37E24FE153E40E948B054B015C014E
:1003400020E030E0A901C701B6010E942704181679
:10035000ECF017C0C701B6010E94860518160CF014
:10036000B9C086E1882E8CE0982E89E8A82E86EC0C
:10037000B82E96E1C92E90E8D92E98E8E92E96EC91
:10038000F92E10920301109202012BC020E030E000
:10039000A901C701B6010E9486051816E4F021C024
:1003A00022E93AE046E85FE3C701B6010E9486050C
:1003B00018160CF0AAC0E6E18E2EE0E89E2EE8E8C2
:1003C000AE2EE6E4BE2EF6E1CF2EFCE0DF2EF9E8FD
:1003D000EF2EF6E4FF2E81E090E0909303018093EE
:1003E000020120E030E0A901C501B4010E94270408
:1003F00018162CF010920101109200010FC020E09D
:1004000030E0A901C501B4010E948605181634F434
:1004100081E090E0909301018093000120E030E0C2
:100420004EEF52E4C701B6010E94860518168CF003
:1004300020E030E04EEF52ECC701B6010E942704E5
:1004400087FF0DC0C12CD12C5EEFE52E52ECF52EAE
:1004500006C0C12CD12C4EEFE42E42E4F42E20E055
:1004600030E04EEF52E4C501B4010E948605181633
:10047000BCF020E030E04EEF52ECC501B4010E9428
:10048000270487FF13C0812C912C3EEFA32E32EC62
:10049000B32E0CC0812C912C54017501640106C04F
:1004A000812C912C2EEFA22E22E4B22EA5019401D4
:1004B0005F77C701B6019F77FF90EF90DF90CF90F5
:1004C000BF90AF909F908F907F906F905F904F9074
:1004D0000C94BA0022E93AE046E85FEBC701B601A6
:1004E0000E94270487FFFACEA6E18A2EA0E89A2E62
:1004F000A8E8AA2EA6ECBA2EB6E1CB2EBCE0DB2EE5
:10050000B9E8EB2EB6ECFB2E3CCF22E93AE046E808
:100510005FEBC701B6010E94270487FF11C066E1A7
:10052000862E6CE0962E69E8A62E66E4B62E76E15D
:10053000C72E70E8D72E78E8E72E76E4F72E4BCF5B
:10054000812C912C8CEDA82E82E4B82ECDCE1F925A
:100550000F920FB60F9211240BB60F92CF92DF922B
:10056000EF92FF922F933F934F935F936F937F93FD
:100570008F939F93AF93BF93EF93FF936FB170E00F
:1005800080E090E00E94D40460930A0170930B0114
:1005900080930C0190930D0120910401309105018D
:1005A000F901EE0FFF1FEE0FFF1FEE5EFE4F60839F
:1005B000718382839383C90101968430910529F068
:1005C00090930501809304017CC010920501109264
:1005D0000401C0901201D0901301E0901401F0903A
:1005E0001501C0920E01D0920F01E0921001F0921D
:1005F000110120E030E040E85FE360911601709166
:10060000170180911801909119010E94270481110E
:100610000CC0F7FAF094F7F8F094C0920E01D09263
:100620000F01E0921001F09211012BED3FE049E43F
:1006300050E460911A0170911B0180911C0190910E
:100640001D010E948B0520E030E044E353E40E944A
:100650002C046B017C016093060170930701809369
:1006600008019093090120E030E040E85FE36091E9
:100670001E0170911F0180912001909121010E9423
:10068000270481110CC0F7FAF094F7F8F094C092A7
:100690000601D0920701E0920801F0920901209131
:1006A00006013091070140910801509109016091C4
:1006B0000E0170910F0180911001909111010E9423
:1006C0001201FF91EF91BF91AF919F918F917F9117
:1006D0006F915F914F913F912F91FF90EF90DF903D
:1006E000CF900F900BBE0F900FBE0F901F901895DC
:1006F00082B1886782B987B3806F87BB78940E9484
:100700005A000E945E000E9465000E946D000E94D7
:1007100069008FEF90E09BBD8ABD99BD88BD2FEF2A
:1007200087EA91E6215080409040E1F700C0000048
:100730008DEFC82E86EFD82E85E0E82E8FE3F82EB9
:1007400010920E0110920F011092100110921101DF
:10075000C0920601D0920701E0920801F0920901CF
:100760002DEF36EF45E05FE360E070E0CB010E94E3
:100770001201E6CF5058BB27AA270E94D2030C943F
:100780004C050E943E0538F00E94450520F039F4E2
:100790009F3F19F426F40C943B050EF4E095E7FB1B
:1007A0000C943505E92F0E945D0558F3BA176207CE
:1007B00073078407950720F079F4A6F50C947F055C
:1007C0000EF4E0950B2EBA2FA02D0B01B90190016C
:1007D0000C01CA01A0011124FF27591B99F0593FB0
:1007E00050F4503E68F11A16F040A22F232F342FF8
:1007F0004427585FF3CF469537952795A795F04046
:100800005395C9F77EF41F16BA0B620B730B840B5A
:10081000BAF09150A1F0FF0FBB1F661F771F881F12
:10082000C2F70EC0BA0F621F731F841F48F487956A
:1008300077956795B795F7959E3F08F0B0CF93955C
:10084000880F08F09927EE0F9795879508950E94D5
:10085000110508F481E008950E9440040C944C05B1
:100860000E94450558F00E943E0540F029F45F3F84
:1008700029F00C94350551110C9480050C943B051E
:100880000E945D0568F39923B1F3552391F3951BFD
:10089000550BBB27AA2762177307840738F09F5FA1
:1008A0005F4F220F331F441FAA1FA9F335D00E2E0E
:1008B0003AF0E0E832D091505040E695001CCAF77B
:1008C0002BD0FE2F29D0660F771F881FBB1F26173E
:1008D00037074807AB07B0E809F0BB0B802DBF0115
:1008E000FF2793585F4F3AF09E3F510578F00C94E4
:1008F00035050C9480055F3FE4F3983ED4F386956C
:1009000077956795B795F7959F5FC9F7880F911D04
:100910009695879597F90895E1E0660F771F881FF0
:10092000BB1F621773078407BA0720F0621B730BA3
:10093000840BBA0BEE1F88F7E09508950E94A5047A
:100940006894B1110C94800508950E94650588F0A3
:100950009F5798F0B92F9927B751B0F0E1F0660F83
:10096000771F881F991F1AF0BA95C9F714C0B130C4
:1009700091F00E947F05B1E008950C947F05672FE8
:10098000782F8827B85F39F0B93FCCF386957795F3
:100990006795B395D9F73EF49095809570956195DC
:1009A0007F4F8F4F9F4F0895E89409C097FB3EF407
:1009B00090958095709561957F4F8F4F9F4F9923AC
:1009C000A9F0F92F96E9BB279395F695879577952A
:1009D0006795B795F111F8CFFAF4BB0F11F460FFEA
:1009E0001BC06F5F7F4F8F4F9F4F16C0882311F042
:1009F00096E911C0772321F09EE8872F762F05C056
:100A0000662371F096E8862F70E060E02AF09A95F0
:100A1000660F771F881FDAF7880F9695879597F9E5
:100A20000895990F0008550FAA0BE0E8FEEF16167F
:100A30001706E807F907C0F012161306E407F507D2
:100A400098F0621B730B840B950B39F40A2661F046
:100A5000232B242B252B21F408950A2609F4A140E9
:100A6000A6958FEF811D811D089597F99F6780E8F6
:100A700070E060E008959FEF80EC089500240A94F0
:100A80001616170618060906089500240A94121669
:100A90001306140605060895092E0394000C11F49C
:100AA000882352F0BB0F40F4BF2B11F460FF04C049
:100AB0006F5F7F4F8F4F9F4F089557FD9058440FA2
:100AC000551F59F05F3F71F04795880F97FB991FAD
:100AD00061F09F3F79F0879508951216130614066A
:100AE000551FF2CF4695F1DF08C0161617061806F7
:100AF000991FF1CF86957105610508940895E894D2
:100B0000BB2766277727CB0197F908950E94110527
:100B100008F48FEF08950E949E050C944C050E94E6
:100B20003E0538F00E94450520F0952311F00C9405
:100B300035050C943B0511240C9480050E945D053D
:100B400070F3959FC1F3950F50E0551F629FF00120
:100B5000729FBB27F00DB11D639FAA27F00DB11D39
:100B6000AA1F649F6627B00DA11D661F829F2227C2
:100B7000B00DA11D621F739FB00DA11D621F839F49
:100B8000A00D611D221F749F3327A00D611D231F1F
:100B9000849F600D211D822F762F6A2F11249F576D
:100BA00050409AF0F1F088234AF0EE0FFF1FBB1F70
:100BB000661F771F881F91505040A9F79E3F51052F
:100BC00080F00C9435050C9480055F3FE4F3983E6B
:100BD000D4F3869577956795B795F795E7959F5FD9
:100BE000C1F7FE2B880F911D9695879597F908956B
:040BF000F894FFCFA7
:00000001FF
