:1000000045C0000053C0000051C000004FC00000B8
:100010004DC000004BC0000049C0000047C00000B8
:1000200045C0000043C0000041C000003FC00000C8
:100030003DC000003BC0000039C0000037C00000D8
:1000400035C0000097C2000031C000002FC0000082
:100050002DC000002BC0000029C0000027C00000F8
:1000600025C0000023C0000021C000001FC0000008
:100070001DC000001BC0000019C0000017C0000018
:1000800015C0000013C0000011C0000011241FBEE5
:10009000CFEFD0E1DEBFCDBF21E0A0E0B1E001C0F5
:1000A0001D92A232B207E1F728D36CC5A9CF83B75E
:1000B000896683BF08958FB5816A8FBD8EB58960CB
:1000C0008EBD089585B5896685BD0895BB9A80EC7F
:1000D0008DB908951B9A1C9A08951C9A1B9A08952D
:1000E0001D9A1E9A08951E9A1D9A0895CF92DF9226
:1000F000EF92FF92CF93DF9369017A012AE939E900
:1001000049EC50E48DD320E030E04FE753E4D7D4FE
:10011000EFD3C62FD72F2AE939E949EC50E4C701BC
:10012000B6017ED320E030E04FE753E4C8D4E0D3FB
:100130008091000190910101892B31F011BE862F31
:10014000972F9BBD8ABD03C061BF1BBC1ABC8091A9
:10015000020190910301892B31F013BC8C2F9D2F4C
:1001600099BD88BD03C0C3BD19BC18BCDF91CF9138
:10017000FF90EF90DF90CF9008958F929F92AF9273
:10018000BF92CF92DF92EF92FF926B017C01490107
:100190005A0120E030E0A9013FD3882379F023EC15
:1001A00034E64AE25DE3C701B60189D42CEB35E0C1
:1001B00042E25FE3CDD26B017C0103C0C12CD12CA4
:1001C000760120E030E0A901C501B40125D38823E0
:1001D00079F020E33AE249E25DE3C501B4016FD46E
:1001E0002EEA36EB42E25FE3B3D29B01AC0103C0DF
:1001F00020E030E0A901C701B60178DFFF90EF9061
:10020000DF90CF90BF90AF909F908F9008954F92C6
:100210005F926F927F928F929F92AF92BF92CF9296
:10022000DF92EF92FF926B017C0149015A0120E0BD
:1002300030E0A901F1D2811109C020E030E0A9012C
:10024000C501B401E9D2882309F435C120E030E0CA
:100250004CED52E4C701B6012ED418160CF44CC173
:1002600020E030E04CED52ECC701B601D5D2882336
:100270000CF437C122E93AE046E85FE3C501B40176
:100280001AD4181654F022E93AE046E85FEBC501AB
:10029000B401C2D2882364F015C00F2EF2E98F2E6C
:1002A000FAE09F2EF6E8AF2EFFE3BF2EF02D0AC036
:1002B0000F2EF2E98F2EFAE09F2EF6E8AF2EFFEB1D
:1002C000BF2EF02D2BED3FE049E450E4C701B6010D
:1002D000F6D32FE832EC45E75DE3F1D320E030E0E0
:1002E00040EF51E49DD26B017C012DE33AE047EDF4
:1002F0005EE3C501B401E3D320E030E040E05FE31A
:10030000DED32B013C019B01AC01C701B60120D219
:100310002AEA37E24FE153E4D2D34B015C01A30157
:100320009201C701B60113D22AEA37E24FE153E442
:10033000C6D36B017C0120E030E0A901C501B40106
:100340006BD2181654F123C00F2EC12CD12CF1E121
:10035000EF2EF3ECFF2EF02D0F2E88248A94982C8C
:10036000F5E9AF2EF2ECBF2EF02D11C00F2ECC24EC
:10037000CA94DC2CF5E9EF2EF2ECFF2EF02D0F2EB7
:10038000812C912CF1E1AF2EF3ECBF2EF02DA5DEE8
:10039000109203011092020133C020E030E0A90165
:1003A000C501B40188D318165CF523C00F2ECC24E8
:1003B000CA94DC2CF5E9EF2EF2E4FF2EF02D0F2E7F
:1003C000812C912CF1E1AF2EF3E4BF2EF02D11C062
:1003D0000F2EC12CD12CF1E1EF2EF3E4FF2EF02DE6
:1003E0000F2E88248A94982CF5E9AF2EF2E4BF2EC4
:1003F000F02D70DE81E090E0909303018093020184
:1004000020E030E0A901C701B60106D2181634F089
:100410006ADE10920101109200010FC020E030E06E
:10042000A901C701B60147D318163CF459DE81E093
:1004300090E0909301018093000120E030E04EEFC6
:1004400052E4C501B40137D3181694F020E030E02F
:100450004EEF52ECC501B401DFD188238CF40F2E8E
:10046000812C912CFEEFAF2EF2ECBF2EF02D08C0A8
:100470000F2E812C912CFEEFAF2EF2E4BF2EF02D2B
:1004800020E030E04EEF52E4C701B60114D3181655
:10049000C4F020E030E04EEF52ECC701B601BCD111
:1004A0008823BCF40F2EC12CD12CFEEFEF2EF2ECE2
:1004B000FF2EF02D0EC0C12CD12C76014601570124
:1004C00008C00F2EC12CD12CFEEFEF2EF2E4FF2E30
:1004D000F02DA70196015F77C501B4019F774DDE2E
:1004E0003CC022E93AE046E85FE3C501B401E3D24B
:1004F00018160CF429CF0BC022E93AE046E85FE376
:10050000C501B401D8D218160CF450CF13C022E99B
:100510003AE046E85FEBC501B4017ED188230CF4D4
:1005200025CF0F2EC12CD12CFCEDEF2EF2ECFF2E9F
:10053000F02DC8CE22E93AE046E85FEBC501B401F0
:100540006BD188230CF444CF0F2EC12CD12CFCEDA1
:10055000EF2EF2E4FF2EF02DB5CEFF90EF90DF905E
:10056000CF90BF90AF909F908F907F906F905F9053
:100570004F9008951F920F920FB60F9211240BB651
:100580000F92CF92DF92EF92FF922F933F934F9370
:100590005F936F937F938F939F93AF93BF93CF930B
:1005A000DF93EF93FF936FB170E080E090E0D1D1E3
:1005B00060930A0170930B0180930C0190930D01DD
:1005C0002091040130910501F901EE0FFF1FEE0F9C
:1005D000FF1FEE5EFE4F6083718382839383C901A8
:1005E00001968430910529F09093050180930401D0
:1005F0006BC01092050110920401E2E1F1E0C080AD
:10060000D180E280F380C0920E01D0920F01E0927F
:100610001001F092110120E030E040E85FE36481D6
:10062000758186819781F8D081110CC0F7FAF0941A
:10063000F7F8F094C0920E01D0920F01E0921001F1
:10064000F0921101C2E1D1E02BED3FE049E450E42A
:10065000688579858A859B8532D220E030E044E345
:1006600053E4DED06B017C016093060170930701B7
:10067000809308019093090120E030E040E85FE3B7
:100680006C857D858E859F85C7D081110CC0F7FA5A
:10069000F094F7F8F094C0920601D0920701E0922E
:1006A0000801F09209012091060130910701409163
:1006B00008015091090160910E0170910F01809124
:1006C000100190911101A3DDFF91EF91DF91CF9186
:1006D000BF91AF919F918F917F916F915F914F915A
:1006E0003F912F91FF90EF90DF90CF900F900BBE36
:1006F0000F900FBE0F901F90189582B1886782B936
:1007000087B3806F87BB7894D2DCD5DCDBDCDEDCA2
:100710000F2EC12CD12CFCEDEF2EF2E4FF2EF02D8C
:10072000C0920E01D0920F01E0921001F0921101DF
:10073000109206011092070110920801109209010F
:1007400020E030E0A901C701B60161DDE9CF5058D2
:10075000BB27AA270ED075C166D130F06BD120F02F
:1007600031F49F3F11F41EF45BC10EF4E095E7FBFA
:1007700051C1E92F77D180F3BA1762077307840755
:10078000950718F071F49EF58FC10EF4E0950B2ECD
:10079000BA2FA02D0B01B90190010C01CA01A001D3
:1007A0001124FF27591B99F0593F50F4503E68F12E
:1007B0001A16F040A22F232F342F4427585FF3CF6F
:1007C000469537952795A795F0405395C9F77EF440
:1007D0001F16BA0B620B730B840BBAF09150A1F089
:1007E000FF0FBB1F661F771F881FC2F70EC0BA0F0F
:1007F000621F731F841F48F4879577956795B79597
:10080000F7959E3F08F0B3CF9395880F08F099278E
:10081000EE0F979587950895D9D008F481E0089553
:100820000CD00FC107D140F0FED030F021F45F3F73
:1008300019F0F0C0511139C1F3C014D198F39923C4
:10084000C9F35523B1F3951B550BBB27AA27621794
:100850007307840738F09F5F5F4F220F331F441FD9
:10086000AA1FA9F333D00E2E3AF0E0E830D0915011
:100870005040E695001CCAF729D0FE2F27D0660FFE
:10088000771F881FBB1F261737074807AB07B0E83D
:1008900009F0BB0B802DBF01FF2793585F4F2AF053
:1008A0009E3F510568F0B6C000C15F3FECF3983E33
:1008B000DCF3869577956795B795F7959F5FC9F7B0
:1008C000880F911D9695879597F90895E1E0660F39
:1008D000771F881FBB1F621773078407BA0720F0B2
:1008E000621B730B840BBA0BEE1F88F7E09508951B
:1008F00004D06894B111D9C00895BCD088F09F5736
:1009000090F0B92F9927B751A0F0D1F0660F771F5B
:10091000881F991F1AF0BA95C9F712C0B13081F03B
:10092000C3D0B1E00895C0C0672F782F8827B85F83
:1009300039F0B93FCCF3869577956795B395D9F79C
:100940003EF490958095709561957F4F8F4F9F4FA6
:100950000895E89409C097FB3EF4909580957095B2
:1009600061957F4F8F4F9F4F9923A9F0F92F96E9FB
:10097000BB279395F695879577956795B795F11170
:10098000F8CFFAF4BB0F11F460FF1BC06F5F7F4F0D
:100990008F4F9F4F16C0882311F096E911C077231F
:1009A00021F09EE8872F762F05C0662371F096E828
:1009B000862F70E060E02AF09A95660F771F881FF7
:1009C000DAF7880F9695879597F90895990F00089B
:1009D000550FAA0BE0E8FEEF16161706E807F90711
:1009E000C0F012161306E407F50798F0621B730BAC
:1009F000840B950B39F40A2661F0232B242B252B2D
:100A000021F408950A2609F4A140A6958FEF811DCF
:100A1000811D089597F99F6780E870E060E0089570
:100A20009FEF80EC089500240A9416161706180606
:100A30000906089500240A941216130614060506E2
:100A40000895092E0394000C11F4882352F0BB0F73
:100A500040F4BF2B11F460FF04C06F5F7F4F8F4FD6
:100A60009F4F089557FD9058440F551F59F05F3F11
:100A700071F04795880F97FB991F61F09F3F79F0C0
:100A800087950895121613061406551FF2CF469542
:100A9000F1DF08C0161617061806991FF1CF8695C4
:100AA0007105610508940895E894BB2766277727A8
:100AB000CB0197F908958ADF08F48FEF08950BD0E2
:100AC000C0CFB1DF28F0B6DF18F0952309F0A2CF30
:100AD000A7CF1124EACFC6DFA0F3959FD1F3950FDE
:100AE00050E0551F629FF001729FBB27F00DB11DB2
:100AF000639FAA27F00DB11DAA1F649F6627B00D42
:100B0000A11D661F829F2227B00DA11D621F739F2A
:100B1000B00DA11D621F839FA00D611D221F749F38
:100B20003327A00D611D231F849F600D211D822F7F
:100B3000762F6A2F11249F5750408AF0E1F08823C6
:100B40004AF0EE0FFF1FBB1F661F771F881F9150D3
:100B50005040A9F79E3F510570F05CCFA6CF5F3F94
:100B6000ECF3983EDCF3869577956795B795F79506
:100B7000E7959F5FC1F7FE2B880F911D969587958E
:080B800097F90895F894FFCFE6
:00000001FF
